:201E000012010002FFFFFF40B40413860100010203010A060002FFFFFF40010009021900A3
:151E200001010080320904000001FFFFFF00070582020002005C
:191E36000902190001010080320904000001FFFFFF0007058202400000E0
:201E5000040309040E0373006900670072006F006B0010036600780032006C006100660068
:1C1E700077001803430079007000720065007300730020004600580032000000EB
:040000000201B9320E
:01000B0032C2
:0100130032BA
:01001B0032B2
:0100230032AA
:03002B000204E0EC
:01003300329A
:01003B003292
:01004300328A
:01004B003282
:01005300327A
:01005B003272
:01006300326A
:03006B0002039CF1
:030073000210DD9B
:03007B00020997E0
:030083000210DA8E
:03008B000204422A
:03009300020491D3
:03009B00020994C3
:0300A30002110740
:0300AB0002110837
:0300B3000211092E
:0300BB0002110C23
:0300C3000210DC4C
:0300CB000210F927
:0300D3000210FA1E
:0300DB000210FC14
:0300E3000203C352
:0300EB000211857A
:0300F3000209956A
:0300FB0002099661
:03010300020CF1FA
:03010B00020CF2F1
:03011300020CF3E8
:03011B0002116866
:03012300021105C1
:03012B0002110AB4
:0301330002110DA9
:03013B0002110F9F
:03014300021106A0
:03014B0002110B93
:0301530002110E88
:03015B000211107E
:030163000211671F
:03016B000210FD82
:030173000210FF78
:03017B000211016D
:0301830002110363
:03018B000210FE61
:0301930002110056
:03019B000211024C
:0301A30002110442
:0301AB000210FB44
:0301B3000210DB5C
:05021200E4F509F50A06
:03022C000201B616
:0301B6000205C877
:20022F0090E61274E8F00000000090E611E0FF747F5FF00000000090E610E0FF747F5FF08C
:20024F000000000090E613E0FF747F5FF00000000090E614E0FF747F5FF00000000090E6C4
:20026F0015E0FF747F5FF00000000090E6047480F00000000090E6047402F000000000906B
:20028F00E604E4F00000000090E6187408F00000000090E6207402F00000000090E621E420
:2002AF00F00000000090E6D27402F0000000002290E7407401F090E74175F000740312109D
:2002CF00DE90E68AE4F00000000090E68B7402F0000000002290E60AE0FF90E740F090E658
:2002EF008AE4F00000000090E68B7401F00000000022AF82BFB0028019BFB1028005BFB266
:20030F001F80168F0890E68BE4F000000000758201221202BF758201221202E47582012294
:20032F0075820022E582FF600475820022AD22AE23AF248D828E838FF0E41210DE758201C4
:20034F0022E582FF7004E52260047582002290E6837412F0E0FF74204FF090E6047480F08F
:20036F000000000090E6047402F00000000090E604E4F0000000007582012275820122AF5D
:20038F0082BF01047F0180027F008F8222C0E0C082C083C007C0D075D000D200AF9174EF1E
:2003AF005FF59190E65D7401F0D0D0D007D083D082D0E032C021C0E0C0F0C082C083C00796
:2003CF00C006C005C004C003C002C001C000C0D075D00090E658E0FFE4F0AE9174EF5EF56E
:2003EF009190E659E0FE30E2147401B50B0F750901750A00C281C007120946D00790E65937
:20040F0074FFF090E65B7401F00000000090E658EFF000000000D0D0D000D001D002D003A1
:20042F00D004D005D006D007D083D082D0F0D0E0D02132C021C0E0C0F0C082C083C007C0E2
:20044F0006C005C004C003C002C001C000C0D075D000758200120FC6AF9174EF5FF591902D
:20046F00E65D7410F0D0D0D000D001D002D003D004D005D006D007D083D082D0F0D0E0D095
:20048F002132C021C0E0C0F0C082C083C007C006C005C004C003C002C001C000C0D075D053
:2004AF0000758201120FC6AF9174EF5FF59190E65D7420F0D0D0D000D001D002D003D004B5
:2004CF00D005D006D007D083D082D0F0D0E0D02132C0E0C0D07402B50B19150974FFB50985
:2004EF0002150AE509450A7010B2817509E8750A038006E50B7002D281C2CFD0D0D0E032A6
:20050F0090E60B7403F0C20075080090E680E0FF740A4FF09005DC12111190E680E0FF7425
:20052F00F75FF090E600E0FF74E75F4410F0E500D2E890E668E0FF74084FF090E65CE0FF4B
:20054F0074014FF090E65AE0FF74014FF090E658E0FF74044FF090E65CE0FF74204FF0E0AD
:20056F00FF74104FF090E670E4F075B202D28175CA0C75CBFE75C800D2ADD2CAD2AF1202FE
:20058F002F02065D300005120CF4C200E508602674B1B5081E90E6A0E0FF20E11990E68B2C
:2005AF00E0FFBF030990E74075F00012071E750800800375080002095612050F1205938001
:0105CF00FB30
:03021700750B0064
:2005D00075AF03759AE4759B007E007F0090E67BE4F00EBE00010FC3EE9480EF6480948097
:2005F00040EB2290E6F3E4F090E6C3F090E6C1F090E6C2F090E6C074E4F090E6F4E4F0909D
:20061000E6D3F02290E67174FFF0F5B490E672E0FF74804FF043B6800000000090E6C5E47A
:20063000F00000000090E6C4E4F02290E6C6E4F090E6C7F090E6C8F090E6C9F090E6CAF0C0
:2006500090E6CBF090E6CCF090E6CDF02290E60174EEF090E6F574FFF01205F31205D01238
:20067000061412063B750B002285822485832585F026AD24AE25AF268D828E838FF0E52249
:200690001210DE74082DFAE43EFB8F048A828B838CF0E41210DE74102DFAE43EFB8F048A98
:2006B000828B838CF0E5231210DE74182DFDE43EFE8D828E838FF0E40210DE85822285839C
:2006D0002385F024AD22AE23AF248D828E838FF074381210DE74082DFAE43EFB8F048A8231
:2006F0008B838CF074031210DE74102DFAE43EFB8F048A828B838CF0E41210DE74182DFD5E
:20071000E43EFE8D828E838FF074360210DE85820C85830D85F00EE5BB30E7FB850C82857B
:200730000D83850EF0121169FC30E50890E6187409F0800690E6187408F000000000850CE5
:2007500082850D83850EF0121169FC30E60890E60174EEF0800690E60174AEF07401250C4B
:20077000FAE4350DFBAC0E8A828B838CF0121169F970167402250CF8E4350DFEAF0E888269
:200790008E838FF01211696005B906004002C322850C82850D83850EF0121169FF20E403A5
:2007B00002088D7402250CFDE4350DFEAF0E8D828E838FF0121169F514E9606F79007DE447
:2007D000E4FEF50FF5108A828B838CF0121169F87F00C3E50F98E51064808FF063F0809576
:2007F000F05071C002C003C00489008D048E0709B900010D75220075230688828C838FF0A3
:20081000C006C005C004C003C002C001120679D001D002D003D004D005D006050FE4B50FF1
:20083000020510D004D003D002809BE514C313FFE514C39FF51474012400F511E434E4F53B
:20085000127513008F2275230690E40075F000120679800689118D128E13AD11AE12AF1395
:2008700074012DF511E43EF5128F138514227523008D828E838FF01206790209327D007E3A
:20089000E4E4FFF50FF5108A828B838CF0121169F87900C3E50F98E510648089F063F08071
:2008B00095F05048C002C003C0048D008E018F040DBD00010E752200752300888289838C69
:2008D000F0C007C006C005C004C003C002120679D002D003D004D005D006D007050FE4B544
:2008F0000F020510D004D003D002809B8D118E128F137402250CFAE4350DFBAC0E8A828B3B
:20091000838CF0121169FC601974012DF511E43EF5128F138C227523008D828E838FF0125D
:200930000679AD11AE12AF138D828E838FF01206CB750B01D322900001120BBD758200127C
:200950000CDA750B02227402B50B38E5BB30E73390E6047480F00000000090E618E4F000E5
:2009700000000090E6047402F00000000090E6187408F00000000090E604E4F0000000003F
:04099000750B0022C1
:010994003230
:01099500322F
:01099600322E
:01099700322D
:2009980085822585832685F02790E601E0FC74FC5CF0E0FC74024CF090E6F574FFF0AA2212
:2009B800AB23AC248A828B838CF012116990E6F3F074012AF8E43BF98C07888289838FF02F
:2009D800121169F890E6C3F074022AFDE43BFE8C078D828E838FF012116990E6C1F074033C
:2009F8002AFDE43BFE8C078D828E838FF012116990E6C2F074052AFDE43BFE8C078D828EC8
:200A1800838FF012116990E6C0F074062AFAE43BFB8A828B838CF0121169FA90E6F4F07567
:200A3800AF07AD25AE268E078F9A7E008D9B759DE48E9E7F0090E67BE0FE90E67CF00FBFBE
:200A5800800040F190E67174FFF0F5B490E672E0FF74804FF043B6800000000090E6C4E449
:200A7800F00000000090E6C5E4F090E6C6F090E6C7F090E6C8F090E6C9F090E6CAF090E603
:200A9800CBF090E6CCF090E6CDF022AD82AE83AFF0E52275F009A4FC2DF9E43EFA8F03898B
:200AB800828A838BF012116990E6C6F07B0074012CF9E43BFAE92DF9EA3EF88F02898288DB
:200AD800838AF012116990E6C7F074022CF9E43BFAE92DF9EA3EF88F02898288838AF01232
:200AF800116990E6C8F074032CF9E43BFAE92DF9EA3EF88F02898288838AF012116990E62F
:200B1800C9F074042CF9E43BFAE92DF9EA3EF88F02898288838AF012116990E6CAF07405C9
:200B38002CF9E43BFAE92DF9EA3EF88F02898288838AF012116990E6CBF074062CF9E43B94
:200B5800FAE92DF9EA3EF88F02898288838AF012116990E6CCF074072CFCE43BFBEC2DFDA2
:200B7800EB3EFE8D828E838FF012116990E6CDF022AC82AD83AEF0FF8E028F038B0190E697
:200B9800CEE9F0000000007B0090E6CFEAF0000000007E008D0790E6D0EFF0000000009035
:200BB800E6D1ECF022AE82AF838F0590E6D0EDF00000000090E6D1EEF022858224858325B0
:200BD80085F026E5BB30E7FB90E6F1E0FC7B008524828525838526F0EC1210DEA3EB121063
:200BF800DEE52224FFFBE52334FFFC7A008A007900C3E89522E99523506EE5BB30E7FBEAC9
:200C180075F002A42524F8E52535F0F9AF26AEBD7D00888289838FF0ED1210DEA3EE121056
:200C3800DE882789288F29888289838FF0121169FEA3121169FF8A017D00E9B50308EDB506
:200C58000404ADBF8002ADBE8D017D00E94206ED42078527828528838529F0EE1210DEA31C
:200C7800EF1210DE0A020C052285822485832585F0267C008C027B00C3EA9522EB9523505F
:200C980040E5BB30E7FBEC75F002A42524F9E52535F0FAAB2689828A838BF0121169A31243
:200CB8001169FFF890E6F0E8F089828A838BF0121169F9A31211697A0090E6F1E9F00C80E0
:190CD800B322AF82E5BB30E7FB74044FF5BB22AF82E5BB30E7FB8FBB2263
:010CF10032D0
:010CF20032CF
:010CF30032CE
:0601E800E478FFF6D8FDEB
:12021A0075160075170075183675191E751A1C751B1EF3
:200CF40090E6B9E0FF24F45003020DF0EF240A83F582EF241083F583E473263CF052F0F058
:200D140068F06E859DD10D0D0D0D0D0D0D0D0D0D0D0D120E6AE5826003020E0690E6A0E00A
:200D3400FF74014FF0020E06120EF7E5826003020E0690E6A0E0FF74014FF0020E06120FFF
:200D540045E5826003020E0690E6A0E0FF74014FF0020E06120FF1020E0612038AAF829013
:200D7400E740EFF090E68AE4F090E68B04F0020E0690E6BAE0F58212038EE582707490E68F
:200D9400A0E0FF74014FF0806990E6BCE0FF7522157523007524408F82120333E582700BBA
:200DB40090E6A0E0FF74014FF0804790E740E515F090E68AE4F090E68B04F0803590E6BC5E
:200DD400E0FF90E6BAE0F5228F82120350E582702190E6A0E0FF74014FF0801690E6B9E03D
:200DF400F582120301E582700990E6A0E0FF74014FF090E6A0E0FF74804FF022AF828F06B9
:200E140053067FEE24F75003020E66EE240A83F582EE240D83F583E4733F4356665A665E31
:200E340066620E0E0E0E0E0E0E0E0E90E6A022EF30E7067EA27FE680047EA17FE68E828FE8
:200E5400832290E6A32290E6A42290E6A52290E6A6229000002290E6B8E0FFBF8002801F48
:200E7400BF81028005BF8273803490E740E4F090E741F090E68AF090E68B7402F08060E5E0
:200E94001725E0FFE516420790E740EFF090E741E4F090E68AF090E68B7402F0804190E62F
:200EB400BCE0F582120E10AE82AF838E048F05EE4F7003F582228C828D83E0FC30E0047F7D
:200ED4000180027F0090E740EFF090E741E4F090E68AF090E68B7402F08004758200227571
:200EF40082012290E6B8E0FF6005BF0237801190E6BAE0FFBF010575170080317582002214
:200F140090E6BAE0701A90E6BCE0F582120E10AE82AF83E0FD5305FE8E828F83EDF0800D49
:200F34007582002290E6B9E0F5820203017582012290E6B8E0FF6005BF026A801B90E6BA76
:200F5400E0FFBF0202806790E6BAE0FFBF0105751701805A7582002290E6BAE0704390E667
:200F7400BCE0F582120E10AE82AF83EE4F7003F582228E828F83E0FD4305018E828F83ED18
:200F9400F090E6BCE0FF53070F90E6BCE05480C423541FFE90E6832FF0E0FF74204FF0804B
:200FB4000D7582002290E6B9E0F58202030175820122AF82D20110AF02C201EF600E7518DF
:200FD4001C75191E751A36751B1E800C75183675191E751A1C751B1EA20192AF2290E6BB37
:200FF400E0FFBF01028019BF02028029BF03028033BF06030210ACBF07030210C10210D0BC
:201014007E007F1E8F0690E6B3EEF07E007F1E90E6B4EEF022AF1990E6B3EFF0AE1890E6B4
:20103400B4EEF0227D507E1E7F8090E6BAE0F5227B008B020BEAB5220280428D008E018F16
:20105400028D828E838FF012116928F8E439F9880589068A0774012DF9E43EFA8F04898217
:201074008A838CF0121169F9B9030280067D007E007F00ED4E6006C3E5229B50B5ED4E60EA
:201094000D8E0790E6B3EFF090E6B4EDF02290E6A0E0FF74014FF0227E127F1E8F0690E666
:2010B400B3EEF07E127F1E90E6B4EEF022AF1B90E6B3EFF0AE1A90E6B4EEF02290E6A0E07A
:0610D400FF74014FF02241
:2001C6007900E94400601B7A0090118A780075921CE493F2A308B800020592D9F4DAF27545
:0201E60092FF86
:0110DA0032E3
:0110DB0032E2
:0110DC0032E1
:0110DD0032E0
:1B10DE0020F71130F6138883A88220F509F6A8837583002280FEF280F5F02211
:0110F90032C4
:0110FA0032C3
:0110FB0032C2
:0110FC0032C1
:03004300021F0099
:201F000002039C000210DD00020997000210DA00020442000204910002099400021106000C
:201F200002110700021108000211090002110C000210DC000210F9000210FA000210FC001E
:201F40000203C30002110600021185000209950002099600020CF100020CF200020CF300C7
:201F6000021168000211060002110600021106000211050002110A0002110D0002110F0024
:201F800002110B0002110E0002111000021167000210FD000210FF0002110100021103001B
:181FA0000210FE000211000002110200021104000210FB000210DB00E0
:0110FD0032C0
:0110FE0032BF
:2001EE007800E84400600A790075921CE4F309D8FC7800E84400600C7900901C00E4F0A3E7
:04020E00D8FCD9FA45
:0110FF0032BE
:0111000032BC
:0111010032BB
:0111020032BA
:0111030032B9
:0111040032B8
:0111050032B7
:0111060032B6
:0111070032B5
:0111080032B4
:0111090032B3
:01110A0032B2
:01110B0032B1
:01110C0032B0
:01110D0032AF
:01110E0032AE
:01110F0032AD
:0111100032AC
:20111100AE82AF8390E600E05418C423541FFD70057CB1FD801C90E600E05418C423541FEC
:20113100FBBB01067A617B0180047AC27B028A048B058C228D23152274FFB522021523E531
:1611510022452370F1EE24FFFAEF34FFFB8A068B07EA4B70DD22AF
:011167003255
:011168003254
:0D01B900758129121186E58260030201B6EE
:1C11690020F71430F6148883A88220F507E6A88375830022E280F7E49322E02295
:011185003237
:04118600758200224C
:00000001FF
