:100000000C9462000C948A000C948A000C948A0070
:100010000C948A000C948A000C948A000C948A0038
:100020000C948A000C948A000C948A000C948A0028
:100030000C948A000C948A000C948A000C948A0018
:100040000C9463040C948A000C94D3040C94AD04B7
:100050000C948A000C948A000C948A000C948A00F8
:100060000C9405050C948A00000000002400270071
:100070002A0000000000250028002B0000000000DE
:1000800023002600290004040404040404040202DA
:100090000202020203030303030301020408102007
:1000A0004080010204081020010204081020000012
:1000B0000008000201000003040700000000000027
:1000C0000000330611241FBECFEFD8E0DEBFCDBF46
:1000D00011E0A0E0B1E0E8E6F8E102C005900D9281
:1000E000A834B107D9F722E0A8E4B1E001C01D921D
:1000F000A03FB207E1F710E0C2E6D0E004C02197CC
:10010000FE010E94270CC136D107C9F70E946C0678
:100110000C94320C0C9400003FB7F8948091430289
:1001200090914402A0914502B091460226B5A89B49
:1001300005C02F3F19F00196A11DB11D3FBFBA2F79
:10014000A92F982F8827820F911DA11DB11DBC01D9
:10015000CD0142E0660F771F881F991F4A95D1F79E
:1001600008958F929F92AF92BF92CF92DF92EF92BB
:10017000FF920E948C004B015C0184EFC82EDD24AD
:10018000D394E12CF12C0E948C00DC01CB01881966
:100190009909AA09BB09883E9340A105B10558F009
:1001A00021E0C21AD108E108F10888EE880E83E048
:1001B000981EA11CB11CC114D104E104F10419F76B
:1001C000FF90EF90DF90CF90BF90AF909F908F9077
:1001D0000895833081F028F4813099F08230A1F0C5
:1001E00008958730A9F08830B9F08430D1F4809137
:1001F00080008F7D03C0809180008F778093800086
:10020000089584B58F7702C084B58F7D84BD08952D
:100210008091B0008F7703C08091B0008F7D809374
:10022000B0000895CF93DF93282F30E0F901E25515
:10023000FF4F8491F901E656FF4FD491F901EA5737
:10024000FF4FC491CC2391F081110E94E900EC2F63
:10025000F0E0EE0FFF1FE458FF4FA591B491EC9131
:10026000ED2381E090E021F480E002C080E090E0A6
:10027000DF91CF9108951F93CF93DF93282F30E024
:10028000F901E255FF4F8491F901E656FF4FD491F1
:10029000F901EA57FF4FC491CC23C9F0162F811101
:1002A0000E94E900EC2FF0E0EE0FFF1FEE58FF4F29
:1002B000A591B4918FB7F894111105C09C91ED2FC1
:1002C000E095E92302C0EC91ED2BEC938FBFDF9119
:1002D000CF911F910895CF93DF9390E0FC01E656F4
:1002E000FF4F2491FC01EA57FF4F8491882361F16D
:1002F00090E0880F991FFC01E859FF4FC591D491F8
:10030000FC01EE58FF4FA591B491611109C09FB750
:10031000F8948881209582238883EC912E230BC04A
:10032000623061F49FB7F8943881822F80958323DF
:100330008883EC912E2B2C939FBF06C08FB7F89427
:10034000E8812E2B28838FBFDF91CF910895809174
:10035000FF0190E02091FE01821B91090895FC01AC
:10036000918D828D981761F0828DDF01A80FB11DEC
:100370005D968C91928D9F5F9F73928F90E0089510
:100380008FEF9FEF0895FC01918D828D981731F0CA
:10039000828DE80FF11D858D90E008958FEF9FEF1E
:1003A0000895FC01918D228D892F90E0805C9F4FF4
:1003B000821B91098F739927089587E492E00E9428
:1003C000D10121E0892B09F420E0822F0895FC015E
:1003D000848DDF01A80FB11DA35ABF4F2C91848DCE
:1003E00090E001968F739927848FA689B7892C9303
:1003F000A089B1898C9180648C93938D848D98139E
:1004000006C00288F389E02D80818F7D8083089566
:10041000EF92FF920F931F93CF93DF93EC0181E054
:10042000888F9B8D8C8D981305C0E889F989808110
:1004300085FD24C0F62E0B8D10E00F5F1F4F0F734C
:100440001127E02E8C8DE8120CC00FB607FCFACFF6
:10045000E889F989808185FFF5CFCE010E94E70107
:10046000F1CF8B8DFE01E80FF11DE35AFF4FF082B3
:100470000B8FEA89FB898081806207C0EE89FF8942
:100480006083E889F98980818064808381E090E0DD
:10049000DF91CF911F910F91FF90EF900895CF932F
:1004A000DF93EC01888D8823C9F0EA89FB8980817C
:1004B00085FD05C0A889B9898C9186FD0FC00FB64E
:1004C00007FCF5CF808185FFF2CFA889B9898C918F
:1004D00085FFEDCFCE010E94E701E7CFDF91CF91FD
:1004E000089580E090E0892B29F00E94DD018111C0
:1004F0000C9400000895CF92DF92EF92FF920F9339
:100500001F93CF93DF936C017A018B01C0E0D0E0A1
:10051000CE15DF0589F0D8016D918D01D601ED91E1
:10052000FC910190F081E02DC6010995892B11F411
:100530007E0102C02196ECCFC701DF91CF911F91C0
:100540000F91FF90EF90DF90CF90089585ED80930D
:10055000BC008091BC0084FDFCCF1092DD010895A9
:1005600040918C01262F30E0240F311D21323105BE
:10057000DCF42091DD012430C9F4FC0180E090E03E
:10058000861758F430918C012191DC01A659BE4F99
:10059000A30FB11D2C930196F3CF80918C01680FAE
:1005A00060938C0180E0089581E0089582E00895D1
:1005B0000895E091FE018091FF01E81730F4F0E02A
:1005C000E252FE4F808190E008958FEF9FEF0895F3
:1005D0009091FE018091FF01981750F4E92FF0E00F
:1005E000E252FE4F208130E09F5F9093FE0102C0F7
:1005F0002FEF3FEFC9010895CF92DF92EF92FF9264
:100600000F931F93CF93DF937C01262F972F8A019F
:1006100080916901882391F0C62FD72F6E01C40EF7
:10062000D51ECC15DD0571F06991D701ED91FC91D6
:100630000190F081E02DC7010995F3CF642F822F3F
:100640000E94B002C801DF91CF911F910F91FF90DE
:10065000EF90DF90CF900895CF93DF931F92CDB7A7
:10066000DEB76983209169012223D1F02091B10185
:10067000203240F021E030E0FC013383228380E02F
:1006800090E015C08091B201E82FF0E0E75BFE4FEB
:10069000998190838F5F8093B2018093B10105C0EF
:1006A00061E0CE0101960E94B00281E090E00F90DF
:1006B000DF91CF910895CF93C62F91E09093690178
:1006C00098E0909348011092B2011092B101682F06
:1006D00084EE92E00E942C03CC2341F04C2F50E09A
:1006E00060E072E084EE92E00E94FC022091B10191
:1006F00090914801213208F04AC08091DD018111BA
:10070000FCCF32E03093DD0131E03093DC013FEF8C
:100710003093DB011092DA012093D901A9E4B1E012
:1007200047EB51E0FA013E2F341B321718F43D918C
:100730003193F9CF1092D8012091D801990F922BC3
:100740009093D8019091D701913061F41092D70124
:100750009091D8019093BB009091BC0093FDF8CF8D
:1007600095EC01C095EE9093BC009091DD01923024
:10077000E1F39091DB019F3F79F08091DB018032C2
:1007800041F08091DB01803331F084E005C081E0ED
:1007900003C082E001C083E01092B2011092B10167
:1007A00010926901CF910895009769F0FC010190C2
:1007B0000020E9F73197AF01481B590BBC0187E4D2
:1007C00092E00C947B0280E090E008958F929F92DB
:1007D000AF92BF92CF92DF92EF92FF920F931F934F
:1007E000CF93DF93CDB7DEB7A1970FB6F894DEBFF6
:1007F0000FBECDBF6C01990FEE08FF08F7FE31C0A8
:10080000E0914702F09148020190F081E02D6DE205
:1008100087E492E009958C0122273327A9012C193E
:100820003D094E095F0919A2CE0181967C019AE02B
:10083000892E912CA12CB12CCA01B901A5019401DA
:100840000E94050C605DF70162937F01211531055F
:100850004105510589F7CF010E94D403800F911FF4
:100860001DC0A701960119A28E010F5D1F4F8AE0DE
:10087000C82ED12CE12CF12CCA01B901A701960197
:100880000E94050C605DF80162938F01211531050E
:100890004105510589F7CF010E94D403A1960FB6F7
:1008A000F894DEBF0FBECDBFDF91CF911F910F91A6
:1008B000FF90EF90DF90CF90BF90AF909F908F9080
:1008C00008950E942D0C1F920F920FB60F921124C3
:1008D0002F933F938F939F93AF93BF9380913F024A
:1008E00090914002A0914102B091420230913E02AB
:1008F00023E0230F2D3720F40196A11DB11D05C063
:1009000026E8230F0296A11DB11D20933E0280937D
:100910003F0290934002A0934102B0934202809123
:10092000430290914402A0914502B0914602019683
:10093000A11DB11D8093430290934402A0934502F0
:10094000B0934602BF91AF919F918F913F912F91AC
:100950000F900FBE0F901F9018951F920F920FB619
:100960000F9211242F933F934F935F936F937F9335
:100970008F939F93AF93BF93EF93FF9387E492E09E
:100980000E94E701FF91EF91BF91AF919F918F91ED
:100990007F916F915F914F913F912F910F900FBE7B
:1009A0000F901F9018951F920F920FB60F9211245F
:1009B0002F938F939F93EF93FF93E0915702F091C2
:1009C00058028081E0915D02F0915E0282FD12C0CA
:1009D0009081809160028F5F8F73209161028217F6
:1009E00051F0E0916002F0E0E95BFD4F958F80935C
:1009F000600201C08081FF91EF919F918F912F91B3
:100A00000F900FBE0F901F9018951F920F920FB668
:100A10000F9211242F933F934F935F936F937F9384
:100A20008F939F93AF93BF93EF93FF938091B90000
:100A3000887F803609F49CC068F5883209F45BC071
:100A400090F4803109F454C038F4882309F4F6C0D6
:100A5000883009F44DC0F6C0883109F44CC08032AA
:100A600009F45DC0EFC0803409F468C048F48033F5
:100A700009F455C0883309F0E5C08093DB01D8C084
:100A8000803509F44FC0883509F45DC0883409F019
:100A9000D9C0D6C0883909F4C7C0A8F4883709F48A
:100AA00067C038F4883609F463C0803709F460C041
:100AB000C9C0883809F4B8C0803909F45FC08038EB
:100AC00009F0C0C05BC0803B09F486C038F4803AAE
:100AD00009F466C0883A09F47FC0B4C0803C09F4C8
:100AE000A7C0883C09F4A4C0883B09F48AC0AAC006
:100AF0008091D80110C09091DA018091D9019817A6
:100B000070F5E091DA0181E08E0F8093DA01F0E078
:100B1000E954FE4F80818093BB0085EC86C08093B2
:100B2000DB018EC0E091DA0181E08E0F8093DA0163
:100B30008091BB00F0E0E954FE4F80839091DA0190
:100B40008091D9016EC0E091DA0181E08E0F80932F
:100B5000DA018091BB00F0E0E954FE4F8083809180
:100B6000DC0181116DC081E08093D70184EA61C00E
:100B700083E08093DD011092B001CFCF8091B0016E
:100B8000803208F051C0E091B00181E08E0F809377
:100B9000B0018091BB00F0E0E057FE4F8083BDCFF5
:100BA00085EC8093BC001092DD018091B001803211
:100BB00030F4E091B001F0E0E057FE4F1082609118
:100BC000B00170E0E0918E01F0918F0180E991E039
:100BD00009951092B00136C084E08093DD01109237
:100BE0008D0110928C01E0918A01F0918B010995A1
:100BF00080918C01811105C081E080938C0110925D
:100C00006A01E0918D0181E08E0F80938D01F0E00B
:100C1000E659FE4F80818093BB0090918D018091B9
:100C20008C01981708F479CF85E88093BC000AC03E
:100C300085EC8093BC001092DD0104C01092DB01B2
:100C40000E94A602FF91EF91BF91AF919F918F916A
:100C50007F916F915F914F913F912F910F900FBEB8
:100C60000F901F901895E7E4F2E01382128288EE4D
:100C700093E0A0E0B0E084839583A683B78324E06B
:100C800031E03183208325EC30E03587248724EC64
:100C900030E03787268720EC30E0318B208B21EC49
:100CA00030E0338B228B22EC30E0358B248B26EC2A
:100CB00030E0378B268B118E128E138E148EE4EE5D
:100CC000F2E01382128284839583A683B78384E142
:100CD00091E0918380830895789484B5826084BD87
:100CE00084B5816084BD85B5826085BD85B5816030
:100CF00085BD80916E00816080936E0010928100AE
:100D00008091810082608093810080918100816068
:100D10008093810080918000816080938000809129
:100D2000B10084608093B1008091B00081608093B5
:100D3000B00080917A00846080937A0080917A007C
:100D4000826080937A0080917A00816080937A003B
:100D500080917A00806880937A001092C10062E0EE
:100D60008BE00E946B0162E08AE00E946B0162E00E
:100D700089E00E946B0162E088E00E946B0161E003
:100D80008DE00E946B0161E08DE00E943B010E94BA
:100D9000B10060E08DE00E943B010E94B100E09153
:100DA0005702F091580282E08083E0915302F09163
:100DB00054021082E0915502F09156028FEC80832C
:100DC00010925F02E0915B02F0915C0286E080830A
:100DD000E0915902F0915A02808180618083E09114
:100DE0005902F0915A02808188608083E091590213
:100DF000F0915A02808180688083E0915902F091DD
:100E00005A0280818F7D808380E291E00E94D4032A
:100E10008CE291E00E94D40361E08DE00E943B01EE
:100E20000E94B10060E08DE00E943B010E94B10091
:100E30001092FE011092FF011092B2011092B101C6
:100E40001092DD0181E08093DC011092D70161E016
:100E500082E10E943B0161E083E10E943B018091BD
:100E6000B9008E7F8093B9008091B9008D7F809307
:100E7000B90088E48093B80085E48093BC003324F3
:100E80003A945EEDC52E51E0D52E65EE262E00EB90
:100E90001FEF70E5E72EF12C0E948C0080903A0243
:100EA00090903B02A0903C02B0903D029B01AC01AF
:100EB000281939094A095B0949015A0130EA8316A0
:100EC00036E8930631E0A306B10408F402C160934A
:100ED0003A0270933B0280933C0290933D028BE078
:100EE0000E9412015C018AE00E9412013C0189E02B
:100EF0000E9412014C0188E00E94120160912202BE
:100F000070912302C0912002D091210220912C02E5
:100F1000672811F0892849F4222309F4C6C01092E9
:100F20002C0281E080932D02C0C031E0AB2809F093
:100F300030E0BB24B394892B09F0B12C71956195F5
:100F40007109311102C0BB2009F1211105C081E0F6
:100F500080932C0280932D022FB7F89480913F024A
:100F600090914002A0914102B09142022FBF8C5358
:100F7000964FAF4FBF4F8093B3019093B401A093AE
:100F8000B501B093B601311122C043C0222309F448
:100F900052C08090B3019090B401A090B501B09080
:100FA000B6012FB7F89480913F0290914002A09132
:100FB0004102B09142022FBF88169906AA06BB06CD
:100FC000D0F510922C0281E080932D0234C0072EC0
:100FD000000C880B990B0E940C0B9B01AC0160E08C
:100FE00070E080E292E40E94F50920E030E048ECF5
:100FF00052E40E94980B20E030E040E252E40E946C
:10100000620A2B013C01B11009C0812C912C5401C2
:1010100048C0BB2081F0412C512C3201BE01DD0FB4
:10102000880B990B0E940C0B9B01AC0160E070E0F7
:1010300080E292E426C0072E000C880B990B0E94D8
:101040000C0B9B01AC0160E070E0CB010E94F50944
:1010500020E030E048EC52E40E94980B20E030E0C1
:1010600040E252E40E94620A2B013C01BE01DD0F06
:10107000880B990B0E940C0B9B01AC0160E070E0A7
:10108000CB010E94F50920E030E048EC52E40E94D8
:10109000980B20E030E040E252E40E94620A4B01EB
:1010A0005C01C301B201905805C0812C912C540100
:1010B000C501B4010E94D40A7093270260932602EE
:1010C000C501B4010E94D40A7093250260932402E2
:1010D00089C18090360290903702A0903802B0907B
:1010E00039029B01AC01281939094A095B094901F8
:1010F0005A0130E9831630ED930633E0A306B104BC
:1011000008F4A6C0609336027093370280933802C9
:101110009093390260E087E10E945B03882389F0A5
:101120008091010290E0982F882720910202822B63
:10113000813591050CF461C0F0922302E092220205
:1011400069C08091DD018111FCCF81E08093DD01D8
:101150008093DC013092DB011092DA0194E09093ED
:10116000D9018093D8018091D80180618093D80102
:101170008091D701813071F41092D7018091D8010C
:101180008093BB008091BC0083FDF8CF45EC409379
:10119000BC0002C02092BC008091DD018130E1F3EF
:1011A0008091DA01853018F4C091DA0101C0C5E000
:1011B000A7EBB1E0EEEDF1E08E2F8C198C1718F44F
:1011C0008D918193F9CF1092FE01C093FF0130E021
:1011D000A32E32E0B32E8091FE01C81709F4A0CFF0
:1011E00084EE92E00E94E802F50181935F01F5E050
:1011F000AF16F2E0BF0679F793CF803B2FEF92074F
:101200002CF0909323028093220204C010932302B7
:10121000009322028091030290E0982F882720916A
:101220000402822B813591052CF0F0922102E0928C
:101230002002D8C0803B3FEF93072CF0909321020F
:1012400080932002CFC01093210200932002CAC0D5
:101250008090320290903302A0903402B090350218
:101260009B01AC01281939094A095B0949015A0156
:1012700030E9831630ED930633E0A306B104D8F0CD
:10128000609332027093330280933402909335025C
:101290008091260290912702909300028093010290
:1012A0008091240290912502909302028093030280
:1012B00064E080E195C080902E0290902F02A09073
:1012C0003002B09031029B01AC01281939094A095A
:1012D0005B0949015A0130E8831634E893063EE180
:1012E000A306B10408F442C060932E0270932F024B
:1012F00080933002909331028FE291E00E94D403F8
:1013000080912602909127020E94E60383E391E0F8
:101310000E94D40380912402909125020E94E6034A
:1013200088E391E00E94D4038091220290912302ED
:101330000E94E6038DE391E00E94D4038091200295
:10134000909121020E94E60382E491E00E94D4037E
:1013500080912C0290E00E94E60386E491E00E94D6
:10136000D4038CE291E00E94D4033CC020912D0272
:101370002223A1F080912C0260E0882329F086E0EE
:101380000E945B0361E004C084E00E945B0360E0B4
:101390008DE00E943B0110922D0224C08090280213
:1013A00090902902A0902A02B0902B029B01AC01E0
:1013B000281939094A095B0949015A0130E48316A1
:1013C0003BE493063CE4A306B10460F0609328027A
:1013D0007093290280932A0290932B0260E082E0AE
:1013E0000E945B030E94710257CD5058BB27AA2769
:1013F0000E940D0A0C945E0B0E94500B38F00E9464
:10140000570B20F039F49F3F19F426F40C944D0B40
:101410000EF4E095E7FB0C94470BE92F0E946F0B4D
:1014200058F3BA17620773078407950720F079F419
:10143000A6F50C94910B0EF4E0950B2EBA2FA02D6F
:101440000B01B90190010C01CA01A0011124FF2771
:10145000591B99F0593F50F4503E68F11A16F0406C
:10146000A22F232F342F4427585FF3CF469537956B
:101470002795A795F0405395C9F77EF41F16BA0B30
:10148000620B730B840BBAF09150A1F0FF0FBB1FDE
:10149000661F771F881FC2F70EC0BA0F621F731F27
:1014A000841F48F4879577956795B795F7959E3F84
:1014B00008F0B0CF9395880F08F09927EE0F979515
:1014C000879508950E94760A0C945E0B0E94570B34
:1014D00058F00E94500B40F029F45F3F29F00C9423
:1014E000470B51110C94920B0C944D0B0E946F0BF7
:1014F00068F39923B1F3552391F3951B550BBB2743
:10150000AA2762177307840738F09F5F5F4F220F87
:10151000331F441FAA1FA9F335D00E2E3AF0E0E87E
:1015200032D091505040E695001CCAF72BD0FE2FC8
:1015300029D0660F771F881FBB1F2617370748075C
:10154000AB07B0E809F0BB0B802DBF01FF27935814
:101550005F4F3AF09E3F510578F00C94470B0C9486
:10156000920B5F3FE4F3983ED4F3869577956795A9
:10157000B795F7959F5FC9F7880F911D9695879549
:1015800097F90895E1E0660F771F881FBB1F621768
:1015900073078407BA0720F0621B730B840BBA0B26
:1015A000EE1F88F7E09508950E94DB0A6894B11158
:1015B0000C94920B08950E94770B88F09F5798F037
:1015C000B92F9927B751B0F0E1F0660F771F881F48
:1015D000991F1AF0BA95C9F714C0B13091F00E9462
:1015E000910BB1E008950C94910B672F782F882709
:1015F000B85F39F0B93FCCF3869577956795B39589
:10160000D9F73EF490958095709561957F4F8F4FF7
:101610009F4F0895E89409C097FB3EF490958095FC
:10162000709561957F4F8F4F9F4F9923A9F0F92FA8
:1016300096E9BB279395F695879577956795B79526
:10164000F111F8CFFAF4BB0F11F460FF1BC06F5F0C
:101650007F4F8F4F9F4F16C0882311F096E911C01E
:10166000772321F09EE8872F762F05C0662371F03F
:1016700096E8862F70E060E02AF09A95660F771F53
:10168000881FDAF7880F9695879597F9089597F947
:101690009F6780E870E060E008959FEF80EC089518
:1016A00000240A9416161706180609060895002441
:1016B0000A9412161306140605060895092E0394BB
:1016C000000C11F4882352F0BB0F40F4BF2B11F42F
:1016D00060FF04C06F5F7F4F8F4F9F4F089557FD8E
:1016E0009058440F551F59F05F3F71F04795880F90
:1016F00097FB991F61F09F3F79F087950895121627
:1017000013061406551FF2CF4695F1DF08C01616D2
:1017100017061806991FF1CF869571056105089483
:101720000895E894BB2766277727CB0197F908959A
:101730000E94AB0B0C945E0B0E94500B38F00E9481
:10174000570B20F0952311F00C94470B0C944D0B84
:1017500011240C94920B0E946F0B70F3959FC1F3B0
:10176000950F50E0551F629FF001729FBB27F00D4F
:10177000B11D639FAA27F00DB11DAA1F649F6627A4
:10178000B00DA11D661F829F2227B00DA11D621FF3
:10179000739FB00DA11D621F839FA00D611D221FAD
:1017A000749F3327A00D611D231F849F600D211D91
:1017B000822F762F6A2F11249F5750409AF0F1F014
:1017C00088234AF0EE0FFF1FBB1F661F771F881F7D
:1017D00091505040A9F79E3F510580F00C94470B63
:1017E0000C94920B5F3FE4F3983ED4F38695779583
:1017F0006795B795F795E7959F5FC1F7FE2B880F23
:10180000911D9695879597F90895A1E21A2EAA1B26
:10181000BB1BFD010DC0AA1FBB1FEE1FFF1FA217A0
:10182000B307E407F50720F0A21BB30BE40BF50B9D
:10183000661F771F881F991F1A9469F76095709526
:10184000809590959B01AC01BD01CF010895EE0FED
:10185000FF1F0590F491E02D099481E090E0F89449
:081860000C94320CF894FFCF48
:101868000000000008027B02D101AF01C3014F0252
:10187800000000002C03FC02A701E802D902D802EC
:10188800486920636F6E74726F6C21000D0A004CFA
:10189800613A003B52613A003B4C733A003B527349
:0818A8003A003B443A003B000A
:00000001FF
