:100000000C946D000C9495000C9495000C94950044
:100010000C9495000C9495000C9495000C9495000C
:100020000C9495000C9495000C9495000C949500FC
:100030000C9495000C9495000C9495000C949500EC
:100040000C9476040C9495000C94E6040C94C00473
:100050000C9495000C9495000C9495000C949500CC
:100060000C9418050C949500CA07E8070208330899
:1000700007080C0811083308280816081D08000096
:100080000000240027002A000000000025002800AE
:100090002B000000000023002600290004040404B3
:1000A0000404040402020202020203030303030322
:1000B00001020408102040800102040810200102FF
:1000C00004081020000000080002010000030407DB
:1000D0000000000000000000460611241FBECFEF04
:1000E000D8E0DEBFCDBF11E0A0E0B1E0E0E9F4E18F
:1000F00002C005900D92AA34B107D9F722E0AAE414
:10010000B1E001C01D92AA3FB207E1F710E0CDE6D1
:10011000D0E004C02197FE010E943B0ACC36D107F3
:10012000C9F70E947F060C94460A0C9400003FB762
:10013000F89480914D0290914E02A0914F02B0919F
:10014000500226B5A89B05C02F3F19F00196A11DAE
:10015000B11D3FBFBA2FA92F982F8827820F911D5D
:10016000A11DB11DBC01CD0142E0660F771F881FA4
:10017000991F4A95D1F708958F929F92AF92BF929F
:10018000CF92DF92EF92FF920E9497004B015C01A9
:1001900084EFC82EDD24D394E12CF12C0E9497002B
:1001A000DC01CB0188199909AA09BB09883E934053
:1001B000A105B10558F021E0C21AD108E108F10803
:1001C00088EE880E83E0981EA11CB11CC114D104D6
:1001D000E104F10419F7FF90EF90DF90CF90BF900A
:1001E000AF909F908F9008952FB7F8946091490237
:1001F00070914A0280914B0290914C022FBF08955A
:10020000833081F028F4813099F08230A1F0089594
:100210008730A9F08830B9F08430D1F48091800023
:100220008F7D03C0809180008F7780938000089538
:1002300084B58F7702C084B58F7D84BD0895809189
:10024000B0008F7703C08091B0008F7D8093B000A5
:100250000895CF93DF93282F30E0F901EC53FF4F3F
:100260008491F901E055FF4FD491F901E456FF4F15
:10027000C491CC2391F081110E940001EC2FF0E099
:10028000EE0FFF1FEE56FF4FA591B491EC91ED23B9
:1002900081E090E021F480E002C080E090E0DF9116
:1002A000CF9108951F93CF93DF93282F30E0F9016A
:1002B000EC53FF4F8491F901E055FF4FD491F901C0
:1002C000E456FF4FC491CC23C9F0162F81110E9430
:1002D0000001EC2FF0E0EE0FFF1FE857FF4FA59154
:1002E000B4918FB7F894111105C09C91ED2FE09552
:1002F000E92302C0EC91ED2BEC938FBFDF91CF91FE
:100300001F910895CF93DF9390E0FC01E055FF4FDC
:100310002491FC01E456FF4F8491882361F190E021
:10032000880F991FFC01E258FF4FC591D491FC0141
:10033000E857FF4FA591B491611109C09FB7F89498
:100340008881209582238883EC912E230BC0623014
:1003500061F49FB7F8943881822F80958323888336
:10036000EC912E2B2C939FBF06C08FB7F894E88199
:100370002E2B28838FBFDF91CF91089580910502A6
:1003800090E020910402821B91090895FC01918D57
:10039000828D981761F0828DDF01A80FB11D5D96E7
:1003A0008C91928D9F5F9F73928F90E008958FEF55
:1003B0009FEF0895FC01918D828D981731F0828D09
:1003C000E80FF11D858D90E008958FEF9FEF089560
:1003D000FC01918D228D892F90E0805C9F4F821BC4
:1003E00091098F739927089581E592E00E94E801B1
:1003F00021E0892B09F420E0822F0895FC01848DEF
:10040000DF01A80FB11DA35ABF4F2C91848D90E03E
:1004100001968F739927848FA689B7892C93A08919
:10042000B1898C9180648C93938D848D981306C0D0
:100430000288F389E02D80818F7D80830895EF927B
:10044000FF920F931F93CF93DF93EC0181E0888F8E
:100450009B8D8C8D981305C0E889F989808185FD75
:1004600024C0F62E0B8D10E00F5F1F4F0F73112766
:10047000E02E8C8DE8120CC00FB607FCFACFE8898D
:10048000F989808185FFF5CFCE010E94FE01F1CF71
:100490008B8DFE01E80FF11DE35AFF4FF0820B8FA9
:1004A000EA89FB898081806207C0EE89FF896083C9
:1004B000E889F98980818064808381E090E0DF9120
:1004C000CF911F910F91FF90EF900895CF93DF93FD
:1004D000EC01888D8823C9F0EA89FB89808185FD3C
:1004E00005C0A889B9898C9186FD0FC00FB607FC9D
:1004F000F5CF808185FFF2CFA889B9898C9185FFDE
:10050000EDCFCE010E94FE01E7CFDF91CF9108959C
:1005100080E090E0892B29F00E94F40181110C9475
:1005200000000895CF92DF92EF92FF920F931F93F6
:10053000CF93DF936C017A018B01C0E0D0E0CE1540
:10054000DF0589F0D8016D918D01D601ED91FC9107
:100550000190F081E02DC6010995892B11F47E01EF
:1005600002C02196ECCFC701DF91CF911F910F916F
:10057000FF90EF90DF90CF90089585ED8093BC00C1
:100580008091BC0084FDFCCF1092E301089540915E
:100590008E01262F30E0240F311D21323105DCF48D
:1005A0002091E3012430C9F4FC0180E090E086173B
:1005B00058F430918E012191DC01A459BE4FA30F54
:1005C000B11D2C930196F3CF80918E01680F60933B
:1005D0008E0180E0089581E0089582E008950895F5
:1005E000E091040280910502E81730F4F0E0EC514C
:1005F000FE4F808190E008958FEF9FEF08959091D6
:10060000040280910502981750F4E92FF0E0EC51B4
:10061000FE4F208130E09F5F9093040202C02FEFD5
:100620003FEFC9010895CF92DF92EF92FF920F93AF
:100630001F93CF93DF937C01262F972F8A01809100
:100640006B01882391F0C62FD72F6E01C40ED51EE3
:10065000CC15DD0571F06991D701ED91FC91019008
:10066000F081E02DC7010995F3CF642F822F0E94FE
:10067000C702C801DF91CF911F910F91FF90EF90BA
:10068000DF90CF900895CF93DF931F92CDB7DEB761
:10069000698320916B012223D1F02091B301203294
:1006A00040F021E030E0FC013383228380E090E0E1
:1006B00015C08091B401E82FF0E0E55BFE4F998111
:1006C00090838F5F8093B4018093B30105C061E094
:1006D000CE0101960E94C70281E090E00F90DF9169
:1006E000CF910895CF93C62F91E090936B0198E03E
:1006F00090934A011092B4011092B301682F8EEECC
:1007000092E00E944303CC2341F04C2F50E066E07E
:1007100072E08EEE92E00E9413032091B30190915B
:100720004A01213208F04AC08091E3018111FCCFD7
:1007300032E03093E30131E03093E2013FEF309358
:10074000E1011092E0012093DF01ABE4B1E04DEB59
:1007500051E0FA013E2F341B321718F43D913193CA
:10076000F9CF1092DE012091DE01990F922B909328
:10077000DE019091DD01913061F41092DD019091E4
:10078000DE019093BB009091BC0093FDF8CF95ECF7
:1007900001C095EE9093BC009091E3019230E1F39B
:1007A0009091E1019F3F79F08091E101803241F029
:1007B0008091E101803331F084E005C081E003C025
:1007C00082E001C083E01092B4011092B301109254
:1007D0006B01CF910895009769F0FC010190002012
:1007E000E9F73197AF01481B590BBC0181E592E055
:1007F0000C94920280E090E008958F929F92AF92C5
:10080000BF920F931F93CF93DF93CDB7DEB7A1971E
:100810000FB6F894DEBF0FBECDBF19A2423008F468
:100820004AE08E010F5D1F4F842E912CA12CB12C1C
:10083000A50194010E94190AE62FB901CA010150CD
:100840001109EA3014F4E05D01C0E95CD801EC93D1
:10085000232B242B252B61F7C8010E94EB03A196C3
:100860000FB6F894DEBF0FBECDBFDF91CF911F91C1
:100870000F91BF90AF909F908F900895CF92DF928D
:10088000EF92FF92CF93DF936C01990FEE08FF0870
:10089000F7FE1FC0E0915102F09152020190F081E9
:1008A000E02D6DE281E592E00995EC01662777275E
:1008B000CB016C197D098E099F094AE00E94FD0356
:1008C0008C0F9D1FDF91CF91FF90EF90DF90CF9025
:1008D00008954AE0C701B601DF91CF91FF90EF90F4
:1008E000DF90CF900C94FD030E94410A1F920F925B
:1008F0000FB60F9211242F933F938F939F93AF9333
:10090000BF938091490290914A02A0914B02B0910D
:100910004C023091480223E0230F2D3720F401963A
:10092000A11DB11D05C026E8230F0296A11DB11D12
:10093000209348028093490290934A02A0934B026D
:10094000B0934C0280914D0290914E02A0914F02C3
:10095000B09150020196A11DB11D80934D0290935C
:100960004E02A0934F02B0935002BF91AF919F915E
:100970008F913F912F910F900FBE0F901F90189560
:100980001F920F920FB60F9211242F933F934F9304
:100990005F936F937F938F939F93AF93BF93EF93E7
:1009A000FF9381E592E00E94FE01FF91EF91BF91DC
:1009B000AF919F918F917F916F915F914F913F91F7
:1009C0002F910F900FBE0F901F9018951F920F92AE
:1009D0000FB60F9211242F938F939F93EF93FF9352
:1009E000E0916102F09162028081E0916702F091F2
:1009F000680282FD12C0908180916A028F5F8F73BE
:100A000020916B02821751F0E0916A02F0E0EF5AF8
:100A1000FD4F958F80936A0201C08081FF91EF9115
:100A20009F918F912F910F900FBE0F901F9018954F
:100A30001F920F920FB60F9211242F933F934F9353
:100A40005F936F937F938F939F93AF93BF93EF9336
:100A5000FF938091B900887F803609F49CC068F5C7
:100A6000883209F45BC090F4803109F454C038F442
:100A7000882309F4F6C0883009F44DC0F6C08831E7
:100A800009F44CC0803209F45DC0EFC0803409F431
:100A900068C048F4803309F455C0883309F0E5C0D4
:100AA0008093E101D8C0803509F44FC0883509F43E
:100AB0005DC0883409F0D9C0D6C0883909F4C7C0F0
:100AC000A8F4883709F467C038F4883609F463C09D
:100AD000803709F460C0C9C0883809F4B8C08039CB
:100AE00009F45FC0803809F0C0C05BC0803B09F4E6
:100AF00086C038F4803A09F466C0883A09F47FC0A9
:100B0000B4C0803C09F4A7C0883C09F4A4C0883B69
:100B100009F48AC0AAC08091DE0110C09091E00162
:100B20008091DF01981770F5E091E00181E08E0F70
:100B30008093E001F0E0E354FE4F80818093BB009E
:100B400085EC86C08093E1018EC0E091E00181E0F8
:100B50008E0F8093E0018091BB00F0E0E354FE4FE4
:100B600080839091E0018091DF016EC0E091E0010F
:100B700081E08E0F8093E0018091BB00F0E0E354B0
:100B8000FE4F80838091E20181116DC081E08093EE
:100B9000DD0184EA61C083E08093E3011092B20139
:100BA000CFCF8091B201803208F051C0E091B20104
:100BB00081E08E0F8093B2018091BB00F0E0EE5691
:100BC000FE4F8083BDCF85EC8093BC001092E30183
:100BD0008091B201803230F4E091B201F0E0EE5643
:100BE000FE4F10826091B20170E0E0919001F091AF
:100BF000910182E991E009951092B20136C084E03A
:100C00008093E30110928F0110928E01E0918C018C
:100C1000F0918D01099580918E01811105C081E0CF
:100C200080938E0110926C01E0918F0181E08E0F14
:100C300080938F01F0E0E459FE4F80818093BB00E8
:100C400090918F0180918E01981708F479CF85E8F3
:100C50008093BC000AC085EC8093BC001092E30135
:100C600004C01092E1010E94BD02FF91EF91BF917B
:100C7000AF919F918F917F916F915F914F913F9134
:100C80002F910F900FBE0F901F901895E1E5F2E0A5
:100C90001382128288EE93E0A0E0B0E08483958313
:100CA000A683B78324E031E03183208325EC30E054
:100CB0003587248724EC30E03787268720EC30E026
:100CC000318B208B21EC30E0338B228B22EC30E017
:100CD000358B248B26EC30E0378B268B118E128ED1
:100CE000138E148EEEEEF2E01382128284839583CB
:100CF000A683B78384E191E0918380830895CF93A5
:100D0000DF931F92CDB7DEB7789484B5826084BD3F
:100D100084B5816084BD85B5826085BD85B58160FF
:100D200085BD80916E00816080936E00109281007D
:100D30008091810082608093810080918100816038
:100D400080938100809180008160809380008091F9
:100D5000B10084608093B1008091B0008160809385
:100D6000B00080917A00846080937A0080917A004C
:100D7000826080937A0080917A00816080937A000B
:100D800080917A00806880937A001092C10062E0BE
:100D90008BE00E94820162E08AE00E94820162E0B0
:100DA00089E00E94820162E088E00E94820161E0A5
:100DB0008DE00E94820161E08DE00E9452010E945C
:100DC000BC0060E08DE00E9452010E94BC00E091F6
:100DD0006102F091620282E08083E0915D02F09115
:100DE0005E021082E0915F02F09160028FEC8083DE
:100DF00010926902E0916502F091660286E08083BC
:100E0000E0916302F0916402808180618083E091CF
:100E10006302F0916402808188608083E0916302C4
:100E2000F0916402808180688083E0916302F09198
:100E3000640280818F7D808380E291E00E94EB03D9
:100E40008CE291E00E94EB0361E08DE00E94520190
:100E50000E94BC0060E08DE00E9452010E94BC0034
:100E600010920402109205021092B4011092B30184
:100E70001092E30181E08093E2011092DD0161E0D4
:100E800082E10E94520161E083E10E94520180915F
:100E9000B9008E7F8093B9008091B9008D7F8093D7
:100EA000B90088E48093B80085E48093BC0074EEB8
:100EB000A72E71E0B72E01EF1FEFE4E1EE2EF12C2B
:100EC000FFE0CF2ED12C0E9497004090440250901A
:100ED000450260904602709047029B01AC012419C4
:100EE00035094609570929013A0130EA431636E81F
:100EF000530631E06306710408F4D7C060934402DE
:100F00007093450280934602909347028BE00E94C3
:100F10002901892B11F0312C02C068E0362E8AE0BD
:100F20000E942901892B11F0212C02C054E0252EAA
:100F300089E00E942901892B11F020E001C022E004
:100F400088E029830E9429014C014090B90150900A
:100F5000BA016090BB017090BC010E94F40029812D
:100F6000461657066806790608F05AC23228832DBD
:100F7000822B91E0892809F090E0E82FE92B8E2F51
:100F800090E08B30910508F06EC0FC01EC5CFF4FE7
:100F90000C943B0A109231021092300210922F02F0
:100FA00010922E0280913602882309F439C24090B3
:100FB000B5015090B6016090B7017090B8010E94E1
:100FC000F400461657066806790608F42CC228C2B3
:100FD0001092310210923002F0922F02E0922E0213
:100FE0000E94F4006093B5017093B6018093B7013D
:100FF0009093B80180913602811112C281E08093F2
:10100000360214C210923102109230021CC0D092EB
:101010003102C092300222C0D0923102C09230021E
:10102000DBCFD0923102C09230020DC04CEE5FEFA8
:101030005093310240933002CFCF8CEE9FEF9093CC
:1010400031028093300210932F0200932E02C8CFFA
:10105000ECEEFFEFF0933102E093300210922F029A
:1010600010922E02BDCF10922F0210922E021092DB
:1010700031021092300280913602882329F01092BA
:10108000360281E0809337020E94F400DC01CB013C
:101090008C509E4FAF4FBF4F8093B9019093BA01D0
:1010A000A093BB01B093BC01BBC1409040025090E3
:1010B000410260904202709043029B01AC012419EE
:1010C00035094609570929013A0130E9431630ED3F
:1010D000530633E06306710408F486C0609340024F
:1010E00070934102809342029093430260E087E153
:1010F0000E9472038823C9F08091070290E0982F24
:10110000882720910802822B90932D0280932C0235
:101110008091090290E0982F882720910A02822B63
:1011200090932B0280932A027BC18091E30181116D
:10113000FCCF81E08093E3018093E2014FEF409385
:10114000E1011092E00194E09093DF018093DE01D1
:101150008091DE0180618093DE018091DD0181302C
:1011600071F41092DD018091DE018093BB008091CB
:10117000BC0083FDF8CF55EC5093BC0003C085EE56
:101180008093BC008091E3018130E1F38091E00124
:10119000853018F47090E00102C025E0722EADEBAE
:1011A000B1E0E4EEF1E08E2F8A19871518F48D91E5
:1011B0008193F9CF109204027092050296E0892E75
:1011C00092E0992E80910402781609F495CF8EEE64
:1011D00092E00E94FF02F40181934F01FBE08F1621
:1011E000F2E09F0679F788CF40903C0250903D0294
:1011F00060903E0270903F029B01AC0124193509BA
:101200004609570929013A0130EA431636E85306E0
:1012100031E06306710408F440C060933C027093AF
:101220003D0280933E0290933F0280913002909164
:10123000310220912802309129022817390761F4E0
:10124000409126025091270220912E0230912F02C8
:101250004217530709F4E4C09093060280930702F3
:1012600080912E0290912F029093080280930902A0
:1012700064E08CE10E94720380913002909131020F
:10128000909329028093280280912E0290912F0240
:101290009093270280932602C3C04090380250905A
:1012A000390260903A0270903B029B01AC01241914
:1012B00035094609570929013A0130E8431634E84F
:1012C00053063EE16306710408F46EC06093380271
:1012D0007093390280933A0290933B028BE00E9414
:1012E0002901892B11F0912C02C088E0982E8AE008
:1012F0000E942901892B11F060E001C064E0962A68
:1013000089E00E942901892B11F080E001C082E070
:10131000982A88E00E94290121E0892B09F020E029
:10132000692D622B062E000C770B880B990B42E07F
:101330000E94FD038FE291E00E94EB038091300256
:10134000909131020E943E0484E391E00E94EB03FD
:1013500080912E0290912F020E943E048AE391E038
:101360000E94EB0380912C0290912D020E943E047A
:101370008FE391E00E94EB0380912A0290912B026F
:101380000E943E0484E491E00E94EB0380913602C7
:1013900090E00E943E0488E491E00E94EB038CE21E
:1013A00091E00E94EB033CC0209137022223A1F080
:1013B0008091360260E0882329F086E00E94720363
:1013C00061E004C084E00E94720360E08DE00E944E
:1013D00052011092370224C04090320250903302E2
:1013E00060903402709035029B01AC0124193509DC
:1013F0004609570929013A0130E443163BE45306F4
:101400003CE46306710460F060933202709333022F
:10141000809334029093350260E082E00E94720370
:101420000E94880250CD1092360281E080933702EC
:10143000F7CFA1E21A2EAA1BBB1BFD010DC0AA1FEC
:10144000BB1FEE1FFF1FA217B307E407F50720F02D
:10145000A21BB30BE40BF50B661F771F881F991FA8
:101460001A9469F760957095809590959B01AC01F1
:10147000BD01CF010895EE0FFF1F0590F491E02DFF
:10148000099481E090E0F8940C94460AF894FFCF18
:10149000000000001F029202E801C601DA016602A4
:1014A0000000000043031303BE01FF02F002EF023D
:1014B000486920636F6E74726F6C21000D0A004CD6
:1014C00074733A003B5274733A003B4C733A003BDE
:0A14D00052733A003B443A003B001F
:00000001FF
